:020000040800F2
:10000000C0130020ED010008A9250008611C0008AC
:10001000A5250008FD180008852D00080000000037
:100020000000000000000000000000008127000820
:100030000119000800000000312600086D280008A2
:10004000070200080702000807020008070200086C
:10005000070200080702000807020008070200085C
:10006000070200080702000807020008070200084C
:10007000070200080702000807020008070200083C
:10008000070200080702000807020008070200082C
:1000900007020008070200080702000811190008FB
:1000A000070200080702000807020008070200080C
:1000B00007020008D128000807020008070200080C
:1000C00007020008070200080702000807020008EC
:1000D00007020008492A00085D2A000807020008F4
:1000E00007020008070200080702000807020008CC
:1000F00007020008070200080702000807020008BC
:1001000007020008070200080702000807020008AB
:10011000070200080702000807020008070200089B
:10012000070200080702000807020008070200088B
:1001300000F002F800F04AF80AA090E8000C8244AF
:100140008344AAF10107DA4501D100F03FF8AFF28C
:10015000090EBAE80F0013F0010F18BFFB1A43F0A5
:1001600001031847744F0000944F0000103A24BF59
:1001700078C878C1FAD8520724BF30C830C144BF0C
:1001800004680C607047000000230024002500264E
:10019000103A28BF78C1FBD8520728BF30C148BFEA
:1001A0000B607047662903F05183642900F0888052
:1001B000002070471FB500F0B7FC040000200021AC
:1001C00003F074F9E0601FBD10B510BD00F0ACFD88
:1001D0001146FFF7EFFF02F04FFF00F0CAFD03B436
:1001E000FFF7F2FF03BC02F0EAFD00000948804778
:1001F00009480047FEE7FEE7FEE7FEE7FEE7FEE709
:10020000FEE7FEE7FEE7FEE704480549054A064B20
:10021000704700007128000831010008C00100206B
:10022000C0130020C0030020C0030020704700005E
:100230000FB4044910B503AA029800F03BFC10BCAF
:100240005DF814FB200000200FB41CB5074B06AA74
:100250007B4469460090059800F013FC0020694635
:1002600000F022FC1CBC5DF814FB000055080000E7
:1002700070B5044685690068C10601D5302600E0E6
:100280002026C00707D070BDD4E901213046904731
:10029000206A401C20626D1EF6D570BD70B5044604
:1002A00085690078C00707D170BDD4E901212020FD
:1002B0009047206A401C20626D1EF6D570BD00007C
:1002C0002DE9F0410646002410687529314616A52F
:1002D00010D0AFF30080002802DA404213A507E0F7
:1002E00031688A0701D512A502E0490704D511A596
:1002F000012401E0AFF3008000210A2206F1240767
:1003000009E0B0FBF2FCB0FBF2F302FB1C00303062
:1003100078541846491C0028F3D123462A46304613
:10032000BDE8F04100F041B9000000002D000000E0
:100330002B000000200000002DE9F05F89460446F4
:100340004FF0000ADFF824B1FB44C0F820A020469B
:10035000E168884700287DD0252806D0D4E901210E
:100360009047206A401C2062F1E700255F46204646
:10037000E16888472028064607DB312E05D2B819E8
:1003800010F8200C08B10543F1E7A80701D525F0C6
:100390000405C4F81CA00027C4F818A02A2E09D010
:1003A000304602F005FD38B304EB8708303EC8F84C
:1003B000186019E059F8041B204604EB870291618C
:1003C000E1688847012F064618D1E069002820DA45
:1003D00025F020051DE0D8F8180000EB800006EBA2
:1003E00040003038C8F818002046E16888470646C3
:1003F00002F0DEFC0028EED1012F0AD02E2E08D10B
:100400002046E16888477F1C0646022F45F02005FC
:10041000C4DBA069002803DA404245F00105A06171
:10042000E80701D025F01005A6B1A6F14100192872
:1004300002D8203645F400654A46314620462560FC
:100440004D46FFF7AFFE60B1012807D0ED1D25F046
:10045000070000E007E000F1080978E705F104096A
:1004600075E730467AE7206ABDE8F09FE44C00006B
:10047000032A40F2308010F0030C00F0158011F8D0
:10048000013BBCF1020F624498BF11F801CB00F8A8
:10049000013B38BF11F8013BA2F1040298BF00F8FC
:1004A00001CB38BF00F8013B11F0030300F02580B9
:1004B000083AC0F0088051F8043B083A51F804CBE0
:1004C000A0E80810F5E7121D5CBF51F8043B40F8A6
:1004D000043BAFF30080D20724BF11F8013B11F8B1
:1004E00001CB48BF11F8012B24BF00F8013B00F8F5
:1004F00001CB48BF00F8012B704710B5203AC0F07F
:100500000B80B1E81850203AA0E81850B1E8185014
:10051000A0E81850BFF4F5AF5FEA027C24BFB1E851
:100520001850A0E8185044BF18C918C0BDE81040C2
:100530005FEA827C24BF51F8043B40F8043B08BFCB
:100540007047D20728BF31F8023B48BF11F8012B92
:1005500028BF20F8023B48BF00F8012B70474FF03E
:1005600000020429C0F0128010F0030C00F0B682E3
:10057000CCF1040CBCF1020F18BF00F8012BA8BF8E
:1005800020F8022BA1EB0C0100F0A8BA5FEAC17CB5
:1005900024BF00F8012B00F8012B48BF00F8012B05
:1005A000704770477047704770472DE9F0470D4618
:1005B00099469246044600F124080168880604D54D
:1005C000E06921F01001216000E00120A84201DD76
:1005D000471B00E00027A1697A1902EB0900081AFD
:1005E000A0612078C00602D42046FFF741FE002615
:1005F00008E0D4E901211AF806009047206A401C5F
:10060000761C20624E45F4DB2078C0060AD52046D1
:10061000FFF72EFE06E0D4E9012130209047206A42
:10062000401C2062381EA7F10107F4DC07E0D4E982
:10063000012118F805009047206A401C2062281EFE
:10064000A5F10105F3DC2046FFF728FE207800061F
:1006500002D50220BDE8F0870120FBE770472DE9B5
:10066000FF4F0C461E464FF0FF378BB0D2E900011A
:10067000DDF860800A908A46C1F30A5505B93D4607
:10068000002108464FF00000BAF1000F00F44000CE
:1006900005DA00EB80004FF4400101EA50004FEA18
:1006A0009059B9F1010F00DDB9460A9850EA4A00A5
:1006B0000ED044F61050A5F2FF3545432F14B8F183
:1006C000000F1ED07542291E1EDDC9F100021CE07C
:1006D000B8F1010F4FF0000001D0302103E0F243E8
:1006E00005E02154401CB042FBDB304600220021D3
:1006F00021540B99C1F80880C1E900200FB0BDE872
:10070000F08FBD1B6D1CDEE74A4600DA694206A881
:1007100000F094FA06AB93E8070003AB83E8070008
:1007200050460A9900F06CFB8DE80700A0F50050D8
:100730001F3800900398002D09DD42F21F014A4640
:10074000084403A90390684600F0CBFD08E0A0F53B
:1007500000504A461F3803A90390684600F0D5FDB3
:100760008DE807000004000C03D04FF0FF30410873
:1007700000E01046B8F1000F03D0002200921546A9
:100780001EE0751E05D400F0D3F9303262556D1E9F
:10079000F9D5B3460122084302D000227F1C04E0B1
:1007A0002078302801D100227F1E002A099786D0A8
:1007B0001DE0112D07DA00F0BBF9303262556D1CD7
:1007C00050EA0102F5D1084302D00098C8B10EE00A
:1007D0000021681E05E0235C625C63542254401EC5
:1007E000491C8142F7DBAB46A81B401E0990002044
:1007F00004F80B000B98099AC0F80880C0E9002B98
:100800007CE711264FF0000859E72DE9F04F8846A4
:100810000446D21D22F0070191B0D1E90001CDE9D3
:100820000A0102F0B1FA02460B98C00F01D02D2048
:1008300007E02068810701D52B2002E0202101EA92
:10084000C000032A099001D0072A05DB0346414670
:10085000204600F0B3F90BE12078800601D5E0696D
:1008600000E00620B8F1650F814606D0B8F1660FAA
:1008700018D0B8F1670F70D131E00020B9F1110F35
:10088000009001DB112301E009F101030AAA01A98B
:100890000CA8FFF7E4FEDDE90C70002609F1010564
:1008A000834647E001204B4600904FF000470AAADC
:1008B00001A90CA8FFF7D3FEDDE90DB00C995D4648
:1008C000002610B909F101000D18B9EB050003D499
:1008D000C0F1FF3609F10105A5EB09002BE0B9F1E4
:1008E000010F01DA4FF001090020B9F1110F00905A
:1008F000484601DD112300E003460AAA01A90CA81D
:10090000FFF7ADFEDDE90C704D46002683462078EA
:1009100000070AD4AB4500DA5D4601A8012D04DDCD
:10092000411911F8011C302907D04F4502DA17F19F
:10093000040F04DA012082460FE06D1EEEE7002F5F
:1009400002DCED1B3E4403E0781CA84200DD7D1C68
:10095000B81B00F1010A4FF000472078000703D4CC
:10096000AA4501DB4FF0FF3A0021B7F1004F0DF12E
:1009700043088DF8431024D002202B23002F01DAE6
:100980007F422D230A21021EA0F1010000DC5FB18D
:1009900097FBF1FC97FBF1F201FB1C7C17460CF175
:1009A000300C08F801CDEEE7A8F1010003702188B2
:1009B000090501D5452100E06521A0F1010800F8F5
:1009C000011C09980FA9A1EB0807FF1D00B1012028
:1009D000411901EBEA70A1693844081A401EA06170
:1009E0002078C00602D42046FFF742FC099828B1BF
:1009F000D4E901219047206A401C20622078C0067B
:100A000022D52046FFF734FC1EE0002E04DBB34560
:100A100002DD01A8805D00E03020D4E9012190478B
:100A2000206A401C2062761CAAF101005FEA000ADD
:100A30000AD100F079F8C0680168405CD4E901216E
:100A40009047206A401C2062281EA5F10105DCDCCD
:100A500007E0D4E9012118F8010B9047206A401CF7
:100A60002062381EA7F10107F3DC2046FFF716FCD1
:100A7000032011B043E6000001694A1C02610878B6
:100A8000704700B58FB0CDE90131002105910549CE
:100A90007944CDE9031011466846FFF74DFC0FB0CD
:100AA00000BD0000E5FFFFFF0A6802F8010B0A60C5
:100AB00070470000074B70B50D467B44FFF7E1FF20
:100AC0000446284600F028F910B14FF0FF3070BD01
:100AD000204670BDB32400004FF0000200B513465D
:100AE00094469646203922BFA0E80C50A0E80C504E
:100AF000B1F12001BFF4F7AF090728BFA0E80C50FF
:100B000048BF0CC05DF804EB890028BF40F8042BF7
:100B100008BF704748BF20F8022B11F0804F18BF64
:100B200000F8012B7047000000487047800100204A
:100B300030B5B0F10A024FEA900E71F100034EEAAF
:100B4000817EB0EB0E0061EB91014FEA101E4EEA80
:100B5000017E10EB0E0041EB11114FEA102E4EEA10
:100B6000016E10EB0E0041EB11214FEA104E4EEAE0
:100B7000014E10EB0E0041EB1141401841F1000114
:100B80004FEAD00040EA41704FEAD10110EB8005F6
:100B90004FEA810444EA907444EB01046D1944EB7C
:100BA0000404521BA3414FF0000348BF0A3200D592
:100BB00030BD401C41F1000130BD00002DE9F04185
:100BC0001F46044603260168072A01F4006004DB7F
:100BD00008B116A505E016A503E008B115A500E0CB
:100BE00015A521F010002060A069C01EA0610FB102
:100BF000401EA0612046FFF73BFB4FB1D4E9012125
:100C000038469047206A401C2062C01C206206E0E3
:100C1000206AFAE7D4E9012115F8010B9047761E06
:100C2000F8D22046FFF73AFBBDE8F0814E414E0076
:100C30006E616E00494E4600696E66002DE9F04710
:100C4000814616468AB0334878440DC88DE80D00B9
:100C500030487844801C03AC0DC884E80D0041F690
:100C60009B300844372190FBF1F290FBF1F5A5F1A0
:100C7000800501FB12041B3C02D56442012000E008
:100C80000020DFF890A080460027FA44AAF1BE0AAF
:100C90000DE0E00709D03246684607EB47010AEB52
:100CA000810100F032FB8DE8070064107F1C002CEE
:100CB000EFD1184F7F44AC3F18E0E80714D007EBA2
:100CC00004100DF1180A90E80E008AE80E00C068C2
:100CD000F04201D198190890324606A903A800F005
:100CE00014FB03AB83E807006D10641C002DE4D1F6
:100CF00032466946B8F1000F03A802D000F0F1FABD
:100D000001E000F002FBC9E90001C9F808200AB0BF
:100D1000BDE8F08774440000007B00F0800070475D
:100D200000487047600100207546FFF7F9FFAE46A6
:100D300005006946534620F00700854618B020B5E7
:100D4000FFF762FABDE820404FF000064FF00007C1
:100D50004FF000084FF0000B21F00701AC46ACE863
:100D6000C009ACE8C009ACE8C009ACE8C0098D46D0
:100D700070470446AFF300802046FFF730FA0000CA
:100D80004FF0013C50F8042B51F8043B9A4221D11A
:100D9000A2EB0C03934313EACC1317D150F8042BA6
:100DA00051F8043B9A4215D1A2EB0C03934313EA8A
:100DB000CC130BD150F8042B51F8043B9A4209D1C3
:100DC000A2EB0C03934313EACC13DBD04FF00000EB
:100DD000704700BFD01A01BAB1FA81F101F01801D1
:100DE00022FA01F0CB40C1F12001DBB2C0B2C01A3F
:100DF0002CFA01F3D11A914311EAC311E6D17047DD
:100E00005FEA400C08BF91F0000F4FEA8C234FEAD5
:100E1000C12243EA51514FEA1C5018BF00F5F0407F
:100E20004FEA300018BF41F000415FEA6C5C00F00F
:100E30002980BCF1FF3F08BF40F080407047130C91
:100E400006BF12044FF0100C4FF0000C130E04BF3D
:100E500012020CF1080C130F04BF12010CF1040C68
:100E6000930F04BF92000CF1020CD30F04BF520089
:100E70000CF1010C11464FF00002A0F11F00A0EB95
:100E80000C00704711F0004F08BF704731F000416F
:100E90003FF4D5AF0B0C06BF09044FF0100C4FF018
:100EA000000C0B0E04BF09020CF1080C0B0F04BF61
:100EB00009010CF1040C8B0F04BF89000CF1020C2A
:100EC000CB0F04BF49000CF1010CCCF12003A0EBC7
:100ED0000C0022FA03F302FA0CF241EA030100F1DA
:100EE0000100704720F07F4C80EA030023F07F4729
:100EF000ACEB070303F57C5300F0004003F1FF0364
:100F00002DE980494FEA154B09B44FEA144325EA0D
:100F10000B4E24EA03480FF2042606EB1327490878
:100F20003E785FEA320203FB0667C7F5000707FB5E
:100F300006F64FEA54374FEAD64606F1020607FB9B
:100F4000066CCCF1005C4FEA1C472CEA074C07FB0F
:100F500006F40CFB06F504EB15464FEA961634BF73
:100F600000204FF000404FEAD13706FB07FC4FEA64
:100F70001C4C0CFB0BF7D21B03FB0CF761EB0701BE
:100F80000CFB0EF7B0EB074072EB17420CFB08F7B7
:100F900034BFA2EB0742B2EB074261EB17414FEAC5
:100FA0000C444FEA910706FB07FC4FEA1C4C0CFB74
:100FB0000BF7B0EBC74072EB573203FB0CF734BFB3
:100FC000A2EBC742B2EBC74261EB57310CFB0EF705
:100FD000B0EBC70072EB57720CFB08F734BFA2EB03
:100FE000C702B2EBC70261EB5771039F4FEA816101
:100FF00041EA921104EBCC044FEAD1374FEA826206
:1010000006FB07FC42EA90124FEA80604FEA1C4C54
:101010000CFB0BF7D21B03FB0CF761EB07010CFB7E
:101020000EF7B0EB074072EB17420CFB08F734BF2A
:10103000A2EB0742B2EB074261EB17414FEA8C5536
:101040004FEA910704EB9C2406FB07FC4FEA1C4C7B
:101050000CFB0BF7B0EBC74072EB573203FB0CF7FE
:1010600034BFA2EBC742B2EBC74261EB57310CFB76
:101070000EF7B0EBC70072EB57720CFB08F734BFEA
:10108000A2EBC702B2EBC70261EB577115EB4C251F
:101090004FEA816141EA92114FEA82624FEAD13709
:1010A00042EA901206FB07FC44F100044FEA80601C
:1010B0004FEA1C4C0CFB0BF7D21B03FB0CF761EB4C
:1010C00007010CFB0EF7B0EB074072EB17420CFB6D
:1010D00008F734BFA2EB0742B2EB074261EB1741BE
:1010E00015EB1C154FEA813141EA92414FEA8232F9
:1010F00042EA90424FEA80304FEA0C7644F1000415
:1011000048EA03434EEA0B484FF0000EB2EB080CDE
:1011100071EB030724BF624639464EEB0E0E4FF0CB
:10112000000B0018524149414BEB0B0BB2EB080C82
:1011300071EB03077BF1000B24BF624639464EEB8F
:101140000E0E4FF0000B0018524149414BEB0B0BB8
:10115000B2EB080C71EB03077BF1000B24BF624676
:1011600039464EEB0E0E51EA020718BF46F0010653
:1011700016EB0E7655F1000254F1000103D5BDE8DF
:101180008901BDE80088BDE88901BDE80048B619BD
:10119000524141EB0101A3F10103704780807F7E42
:1011A0007D7C7B7A797877767675747372717170DD
:1011B0006F6E6E6D6C6C6B6A6A696868676666658F
:1011C0006464636362616160605F5F5E5E5D5D5C1D
:1011D0005C5B5B5A5A59595858575756565555558E
:1011E0005454535352525251515050504F4F4F4EEE
:1011F0004E4D4D4D4C4C4C4B4B4B4A4A4A4949493C
:10120000484848474747474646464545454444447D
:10121000444343434342424242414141002B26D48E
:10122000770021D01CB54FEA370703B44FF0100008
:101230004FF010014FF000000FBCBDE810400BF163
:10124000010BBBF1010F08BF5FEA170722BF12F1C4
:10125000010211F101014FF0004143F1000300F0E0
:10126000004043EA00007047F9D35708DAE746EA3E
:10127000064613F1400F4FEA16461FDD13F1200F0B
:10128000DFBF16430A46002120335B42C8D0C3F1BA
:10129000200746EA064602FA07F74FEA164646EAEC
:1012A0000706C3F1200722FA03F201FA07F721FA31
:1012B00003F14FF0000342EA0702B1E746EA0206F3
:1012C00046EA06464FEA164646EA0106BCBF46EA2B
:1012D0000646360C4FF000034FF000024FF00001BD
:1012E0009EE72DE9C048934630B491E8380007C81E
:1012F00031EA400C48BF34EA430C03D5FFF7F2FD56
:10130000FFF78CFFF0BCBDE800882DE9C04893468C
:1013100030B491E8380007C810F0804F08BF13F0D0
:10132000804F03D100F005F8FFF778FFF0BCBDE86F
:10133000008820F07F4780EA030023F07F4C07EB12
:101340000C03A3F57C5300F00040A3F1FE0392F0E0
:10135000000F00F0B38095F0000F00F077802DE9CA
:1013600001494FEA11404FEA144621EA004800FBC8
:1013700006FC24EA064708FB06F607FB08F800FB14
:1013800007F718EB06484CEB164C4FEA124B18EBDC
:1013900007484FEA15464CEB174022EA0B4E0BFB71
:1013A00006FC25EA06470EFB06F607FB0EFE0BFBC6
:1013B00007F71EEB064E4CEB164C4FF000061EEBEB
:1013C000074E4CEB174B18EB0B0840F1000018EBE5
:1013D0000E0B58EB000840F100008F1A4FF000018F
:1013E0003CBFC943661B14BFB5EB040C00213CBFD6
:1013F000C943F61B4FEA17444EEA8E0E27EA04450E
:101400004FEA1C4704FB07622CEA074C05FB07F771
:101410000CFB05F604FB0CFC16EB074642EB1742EF
:1014200016EB0C4642EB1C421BEB060658EB020285
:10143000414146EA9E0601D5BDE80189B6195241EF
:1014400041EB0101A3F10103BDE801894FEA144515
:101450004FEA114724EA054621EA074C05FB07F449
:1014600006FB07F70CFB06F105FB0CFC11EB074133
:1014700044EB17444FEA124711EB0C4144EB1C4478
:1014800022EA074C05FB07F206FB07F70CFB06F602
:1014900005FB0CFC16EB074642EB174216EB0C461D
:1014A00042EB1C456A1854F1000148BF7047B61959
:1014B000524141EB0101A3F10103704795F0000F88
:1014C00037D04FEA11424FEA144721EA024624EA94
:1014D000074C02FB07F106FB07F70CFB06F402FBC7
:1014E0000CFC14EB074441EB17414FEA154714EB92
:1014F0000C4441EB1C4125EA074C02FB07F506FBB7
:1015000007F70CFB06F602FB0CFC16EB074645EB57
:10151000174516EB0C4645EB1C42121951F1000120
:1015200048BF7047B619524141EB0101A3F10103D5
:1015300070474FEA14454FEA114724EA054621EA6D
:10154000074C05FB07F106FB07F70CFB06F24FF013
:10155000000605FB0CFC12EB074241EB174112EBB6
:101560000C4251EB1C4148BF7047921841EB0101FE
:10157000A3F10103704721B1826842F00102826049
:1015800003E0826822F001028260704710B50446D1
:101590001248844208D10121401501F077F800215A
:1015A000601501F073F817E00D48844208D101215D
:1015B000001501F06BF80021201501F067F80BE031
:1015C0000848844208D10121C80301F05FF80021D6
:1015D0004FF4004001F05AF810BD00000024014013
:1015E00000280140003C0140014600208A6802F0CA
:1015F00004020AB1012000E0002070470146C86CD7
:1016000080B270470246002013680B400BB10120E6
:1016100000E000207047014600208A6802F00802BE
:101620000AB1012000E000207047000030B50246FA
:101630000020002350680F4C20400D790C6844EACC
:1016400005242043506090680B4C2040D1E902549F
:101650002C434D7944EA450420439060D06A20F43D
:1016600070000C7C641EE4B2234340EA0350D06255
:1016700030BD0000FFFEF0FFFDF7F1FFF0B50446BE
:101680000D4600200021092D11DDE068A5F10A06B4
:1016900006EB4607072606FA07F18843A5F10A0676
:1016A00006EB460603FA06F10843E0600CE0206909
:1016B00005EB4507072606FA07F1884305EB4506C3
:1016C00003FA06F108432061072A0FDA606B561E01
:1016D00006EB86071F2606FA07F18843561E06EB1F
:1016E000860605FA06F10843606322E00D2A0FDA48
:1016F000206BD61F06EB86071F2606FA07F18843E4
:10170000D61F06EB860605FA06F10843206310E0B3
:10171000E06AA2F10D0606EB86071F2606FA07F11E
:101720008843A2F10D0606EB860605FA06F108438A
:10173000E062F0BD816841F008018160704721B12D
:10174000826842F4A002826003E0826822F4A00270
:1017500082607047816841F0040181607047000039
:101760002DE9F04788B0012000F068F8814648462E
:1017700002F00EF8824601F0DFFF0746244A254BAF
:1017800001F0DCFE054601F0A7FE04464A4622A110
:1017900005A8FEF759FD204601F0CEFF05462A4672
:1017A0000B461EA102A8FEF74FFD102028230022A1
:1017B00064210090822000F0CFFB1020282300221B
:1017C00078210090822000F0C7FB16A34FF6E0724C
:1017D0006421322000F028FE14A34FF6E072782135
:1017E000322000F021FE05AB4FF6E072642182202A
:1017F00000F01AFE02AB4FF6E0727821822000F072
:1018000013FE0D4800F07DF808B0BDE8F087000039
:10181000B4D934E70C684A3F2564000025342E33E0
:101820006600000056616C75653A0000566F6C7476
:101830006167653A00000000808D5B0010B50446CA
:101840000723012221460948FFF718FF0121074815
:10185000FFF775FF00BF02210448FFF7D3FE002801
:10186000F9D00248FFF7CAFE10BD00000024014075
:1018700000B587B001214FF4017000F0F7FE4FF47E
:10188000004000F0D7FE0220ADF8040000208DF8E3
:10189000070001A9174800F0F1F81748FFF776FE96
:1018A000002002908DF80C008DF80D004FF46020A0
:1018B00004900020059001208DF8180002A90E4820
:1018C000FFF7B4FE01210C48FFF755FE0A48FFF769
:1018D00031FF00BF0848FFF79EFE0028FAD10648F6
:1018E000FFF738FF00BF0448FFF77EFE0028FAD15B
:1018F00007B000BD000801400024014000BFFEE722
:10190000704700BF0100A0F10100FBD1704700004B
:1019100010B54FF4807000F039F8C8B1022000F023
:1019200085F80E4908700421032000F088F80C495E
:1019300008800621052000F082F80A490880084640
:101940000388074802880548017807A0FEF770FC65
:101950004FF4807000F014F810BD00001400002057
:101960001600002018000020506F696E74733D252A
:10197000640D0A583D25640D0A593D25640D0A0081
:10198000014908607047000014040140014600202E
:101990000022074B1B6803EA0102054B14331B6846
:1019A0000B4013B10AB1012000E000207047000095
:1019B0000004014008B50121042000F057FE10206A
:1019C000ADF800008DF8030003208DF80200694691
:1019D000144800F053F81021124800F02EF94CF290
:1019E0005030FFF78EFF10210E4800F024F94CF222
:1019F0005030FFF786FF10210A4800F01EF9102032
:101A0000ADF8000004208DF8030003208DF80200DB
:101A10006946054800F032F81021034800F00BF940
:101A200008BD0000000801400010014070B50446E8
:101A3000204600F05DF900F00F05284670BD2DE945
:101A4000F04105460C46284600F052F900F00F061A
:101A5000204600F04DF9074647EA06284046BDE813
:101A6000F081000010B501F0ADF9034800780128BD
:101A700001D101F075FB10BD2B0000202DE9F041D4
:101A8000024600250026002000230024002791F8AC
:101A900003C00CF00F0591F803C00CF0100CBCF162
:101AA000000F03D091F802C04CEA050591F800C080
:101AB000BCF1000F31D0146800202BE04FF0010C76
:101AC0000CFA00F3B1F800C00CEA03069E4220D1E4
:101AD00083004FF00F0C0CFA03F7BC4305FA03FC2C
:101AE0004CEA040491F803C0BCF1280F06D14FF072
:101AF000010C0CFA00FCC2F814C00AE091F803C013
:101B0000BCF1480F05D14FF0010C0CFA00FCC2F8F3
:101B100010C0401C0828D1D31460B1F800C0BCF13B
:101B2000FF0F34DD546800202EE000F1080C4FF068
:101B3000010808FA0CF3B1F800C00CEA03069E4253
:101B400021D183004FF00F0C0CFA03F7BC4305FAC8
:101B500003FC4CEA040491F803C0BCF1280F05D142
:101B600000F1080C08FA0CF8C2F8148091F803C0D0
:101B7000BCF1480F07D100F1080C4FF0010808FA3A
:101B80000CF8C2F81080401C0828CED35460BDE881
:101B9000F0810000F0B50A46002300240021002552
:101BA00000F00046B6F1004F02D11D4EF16901E090
:101BB0001B4E7168C0F3034583B200F44016B6F5BE
:101BC000401F08D121F07061154E766826F07066CE
:101BD000134F7E6012E000F48016B6F5801F06D128
:101BE000032606FA05F4A14341F0706106E0460DB4
:101BF000360103FA06F6B14341F0706122B1460D99
:101C0000360103FA06F6314300F00046B6F1004F04
:101C100002D1034EF16101E0014E7160F0BD0000A0
:101C2000000001400246002093680B400BB10120E8
:101C300000E0002070474161704701617047C1605A
:101C40007047000010B541F61F41092000F050FE1A
:101C500002480021017001F0DFF910BD1B000020D7
:101C600000BFFEE721B1028842F48062028004E0F6
:101C700002884FF6FF331A400280704770B5024663
:101C80000024002500230020958A138B1B0445EABD
:101C9000030626F07F4404EA01068E4201D10120AA
:101CA00000E0002070BD21B1028842F001020280F4
:101CB00004E002884FF6FE731A400280704721B19B
:101CC000028842F48072028004E002884FF6FF63CB
:101CD0001A400280704721B1028842F400720280EB
:101CE00004E002884FF6FF531A400280704700005C
:101CF00070B5044601213348FFF7E1FF0020FFF7EC
:101D000000FE00BF30492F48FFF7B8FF0028F9D088
:101D1000002270212B4800F05FF80020FFF7F1FD52
:101D200000BF2A492748FFF7A9FF0028F9D0012161
:101D30002448FFF7B8FF2146224800F056F800205B
:101D4000FFF7DFFD00BF2149891C1E48FFF796FF02
:101D50000028F8D001211B48FFF7B1FF0020FFF752
:101D6000D0FD00BF18491748FFF788FF0028F9D0B9
:101D700001227121134800F02FF80020FFF7C1FD68
:101D800000BF1149491C0F48FFF778FF0028F8D021
:101D900000210C48FFF766FF01210A48FFF79BFF6F
:101DA00000BF09493F310748FFF768FF0028F8D016
:101DB0000020FFF7A6FD034800F00AF80546284674
:101DC00070BD0000005400400100030082000700C5
:101DD0000146088AC0B2704712B141F0010102E029
:101DE0004FF6FE7319400182704701827047000070
:101DF00008B50121042000F039FCA020ADF8000056
:101E000014208DF8030003208DF80200694606486F
:101E1000FFF734FE20210448FFF70FFF802102481E
:101E2000FFF70BFF08BD00000008014010B50024BB
:101E300020210748FFF7F6FE40B90648FFF761FD8D
:101E400020210348FFF7EEFE00B90124204610BD13
:101E50000010014020A1070010B500244FF40041FC
:101E60000748FFF7DFFE48B90648FFF74AFD4FF481
:101E700000410348FFF7D6FE00B90124204610BDFB
:101E80000008014020A1070010B5002401210848E6
:101E9000FFF7C8FE012809D10648FFF732FD0121EE
:101EA0000348FFF7BFFE012800D10124204610BDE2
:101EB0000008014020A1070008B50121142000F00E
:101EC000D5FB01211148FFF765FE4FF40040ADF846
:101ED000000048208DF8030069460D48FFF7CEFD4D
:101EE0002020ADF8000048208DF80300694609481D
:101EF000FFF7C4FD0120ADF8000028208DF8030095
:101F000069460348FFF7BAFD08BD00000002300033
:101F1000000801400010014070B50646002511E0A0
:101F200000240BE02946204600F08CF92C2000F01C
:101F30009DFA304600F0BCFA601C84B2F02CF1DD52
:101F4000681C85B2B5F5A07FEADD70BD002100E018
:101F5000491C8142FCD370472DE9F04704460D46E9
:101F600090469946DDF820A02F4613E026460BE068
:101F70003946304600F066F92C2000F077FA4046EA
:101F800000F096FA701C86B204EB0900B042EFDA5A
:101F9000781C87B205EB0A00B842E7DABDE8F087A3
:101FA00008B50121192000F061FB0121A148FFF7CC
:101FB000F1FD4FF4F860ADF8000010208DF803003B
:101FC00003208DF8020069469B48FFF757FD4FF448
:101FD000F8619948FFF731FE4FF6FF70ADF8000049
:101FE00069469648FFF74AFD4FF6FF719348FFF7A1
:101FF00024FE002000F03AFA012000F059FACF2028
:1020000000F034FA002000F053FAC12000F050FA3A
:10201000302000F04DFAED2000F028FA642000F0A6
:1020200047FA032000F044FA122000F041FA812020
:1020300000F03EFAE82000F019FA852000F038FAA6
:10204000102000F035FA7A2000F032FACB2000F0B0
:102050000DFA392000F02CFA2C2000F029FA00208B
:1020600000F026FA342000F023FA022000F020FAD3
:10207000F72000F0FBF9202000F01AFAEA2000F027
:10208000F5F9002000F014FA002000F011FAC02049
:1020900000F0ECF91B2000F00BFAC12000F0E6F98B
:1020A000012000F005FAC52000F0E0F9302000F032
:1020B000FFF9302000F0FCF9C72000F0D7F9B72075
:1020C00000F0F6F9362000F0D1F9482000F0F0F9E0
:1020D0003A2000F0CBF9552000F0EAF9B12000F0E9
:1020E000C5F9002000F0E4F91A2000F0E1F9B6206B
:1020F00000F0BCF90A2000F0DBF9A22000F0D8F9CA
:10210000F22000F0B3F9002000F0D2F9262000F010
:10211000ADF9012000F0CCF9E02000F0A7F90F2084
:1021200000F0C6F92A2000F0C3F9282000F0C0F919
:10213000082000F0BDF90E2000F0BAF9082000F0E8
:10214000B7F9542000F0B4F9A92000F0B1F9432008
:1021500000F0AEF90A2000F0ABF90F2000F0A8F96A
:10216000002000F0A5F9002000F0A2F9002000F006
:102170009FF9002000F09CF9E12000F077F90020A1
:1021800000F096F9152000F093F9172000F090F96F
:10219000072000F08DF9112000F08AF9062000F0E8
:1021A00087F92B2000F084F9562000F081F93C20BB
:1021B00000F07EF9052000F07BF9102000F078F99E
:1021C0000F2000F075F93F2000F072F93F2000F079
:1021D0006FF90F2000F06CF92B2000F047F9002078
:1021E00000F066F9002000F063F9012000F060F9CA
:1021F0003F2000F05DF92A2000F038F9002000F0BF
:1022000057F9002000F054F9002000F051F9EF20B8
:1022100000F04EF9112000F029F90948FFF796FE69
:10222000292000F023F900F023F80020FFF774FEC6
:1022300008BD00000002300000100140000C014009
:10224000E093040070B504460D462A2000F00EF914
:10225000201200F02DF9E0B200F02AF92B2000F056
:1022600005F9281200F024F9E8B200F021F970BD58
:1022700010B5002444F00804362000F0F7F820469A
:1022800000F016F910BD00002DE9FC5F06460C4673
:1022900017469846A2464FF0800B38782038C0B2D7
:1022A000009000252BE0002001901AE016490098CC
:1022B00001EB001010F8059021463046FFF7C2FFF1
:1022C00009EA0B0028B12C2000F0D0F8404600F0BD
:1022D000EFF84FEA6B0B601C84B20198401CC0B24F
:1022E000019001980828E1DB4FF0800BA4EB0A0075
:1022F000102802D15446701C86B2681CC5B2102D3D
:10230000D1DBBDE8FC9F0000C43C000870B5064668
:10231000002517E0002411E029462046FFF792FF30
:102320002C2000F0A3F83C2094FBF0F100FB1140BE
:1023300010B9304600F0BCF8601C84B2F02CEBDD24
:10234000681C85B2B5F5A07FE4DD002418E0002507
:1023500011E029462046FFF775FF2C2000F086F893
:10236000502095FBF0F100FB115010B9304600F001
:102370009FF8681C85B2B5F5A07FEADD601C84B2C9
:10238000F02CE4DD1CA34FF478422021122000F051
:102390004BF81AA34FF4784220214E2000F044F865
:1023A00017A34FF4784220218A2000F03DF815A3AE
:1023B0004FF478422021C62000F036F812A34FF4E3
:1023C000784270210E2000F02FF811A34FF47842CC
:1023D00070214A2000F028F80FA34FF478427021B2
:1023E000862000F021F80EA34FF478427021C2201D
:1023F00000F01AF870BD00004C454400493243001B
:102400005350490041444300464C534800000000EB
:1024100054454D500000000055415254000000004A
:10242000494E4652000000002DE9F04105460E4697
:1024300017461C4611E03B46224631462846FFF728
:1024400023FF05F1080085B2F02D04DB06F1100032
:1024500086B2002500E000BF641C20787E2802DCE4
:1024600020782028E7DABDE8F081000010B50446A6
:102470004FF480710C48FFF7DEFB4FF400710A48FF
:10248000FFF7D9FB21460948FFF7D9FB8021064811
:10249000FFF7D1FB80210448FFF7CFFB4FF4007119
:1024A0000148FFF7CAFB10BD00100140000C0140BD
:1024B00010B504464FF480710C48FFF7BEFB4FF493
:1024C00000710A48FFF7B7FB21460948FFF7B7FB41
:1024D00080210648FFF7AFFB80210448FFF7ADFBE2
:1024E0004FF400710148FFF7A8FB10BD0010014038
:1024F000000C014008B50121242000F0B7F84FF48A
:102500008070ADF8000010208DF8030003208DF8D6
:10251000020069460948FFF7B1FA4FF48071074895
:10252000FFF78BFB0420ADF8000069460448FFF775
:10253000A5FA04210248FFF780FB08BD000801400E
:102540000014014010B54FF480710B48FFF773FB86
:1025500004210A48FFF771FB0948FFF7D2F94FF44D
:1025600080710548FFF769FB04210448FFF763FB0E
:102570000348FFF7C6F910BD0008014000140140F0
:1025800040420F0010B504210448FFF756FB4FF4FA
:1025900080710348FFF751FB10BD0000001401409B
:1025A0000008014000BFFEE77047000070B5002141
:1025B00000230F22C47804B3154C246804F4E064AB
:1025C000C4F5E064210AC1F10403CA40447804FA66
:1025D00003F184781440214309010E4C0678A1557B
:1025E000047804F01F050124AC4005786D11AD009E
:1025F00005F1E025C5F8004109E0047804F01F0565
:102600000124AC40044D0678761145F8264070BD93
:102610000CED00E000E400E080E100E0024901434D
:10262000024A1160704700000000FA050CED00E05E
:102630007047000001460020034A506820F44040E3
:1026400008435060704700000010024029B1064A5C
:10265000D2690243044BDA6104E0034AD26982433F
:10266000014BDA61704700000010024029B1064AB0
:1026700092690243044B9A6104E0034A92698243DF
:10268000014B9A61704700000010024029B1064AD0
:10269000D2680243044BDA6004E0034AD268824302
:1026A000014BDA60704700000010024030B5002195
:1026B0000022002400232D4D6D6805F00C0121B18E
:1026C000042905D0082923D105E0294D056022E021
:1026D000274D05601FE0254D6D6805F47012234DF0
:1026E0006D6805F48034022505EB92421CB9214D3A
:1026F000554305600BE01D4D6D6805F400351DB1B7
:102700001C4D5543056002E0194D5543056002E03C
:10271000174D056000BF00BF144D6D6805F0F00156
:102720000909154D6B5C0568DD4045600F4D6D680E
:1027300005F4E061090A104D6B5C4568DD40856079
:102740000A4D6D6805F46051C90A0B4D6B5C456814
:10275000DD40C560054D6D6805F44041890B074DAE
:102760006B5CC568B5FBF3F5056130BD0010024038
:1027700000127A0000093D00000000201000002037
:10278000704710B500F002F810BD00000CB5002035
:10279000019000903348006840F48030314908606F
:1027A00000BF3048006800F4003000900198401CE1
:1027B0000190009818B90198B0F5A06FF1D129489F
:1027C000006800F4003010B10120009001E000200A
:1027D00000900098012843D12348006840F0100081
:1027E000214908600846006820F003000860084698
:1027F000006840F0020008601A48406819494860C3
:102800000846406848600846406840F48060486078
:102810000846406820F47C1048600846406840F450
:10282000E81048600846006840F08070086000BF0B
:102830000C48006800F000700028F9D00948406892
:1028400020F00300074948600846406840F0020055
:10285000486000BF0348406800F00C000828F9D128
:102860000CBD000000100240002002407047000034
:1028700010B51348006840F001001149086008468F
:102880004068104908400E494860084600680E49F3
:1028900008400B4908600846006820F48020086062
:1028A0000846406820F4FE0048604FF41F0088602E
:1028B000FFF767FF4FF000600449086010BD00009B
:1028C000001002400000FFF8FFFFF6FE08ED00E0F8
:1028D00010B50121054800F04AF828B1012103484C
:1028E00000F036F800F090FB10BD0000000400403E
:1028F0007FB505460C4601210220FFF7A7FEADF883
:102900000850ADF804400020ADF80A00ADF806000C
:1029100001A90E4800F046F8012211460B4800F0CC
:1029200037F81D208DF8000000208DF801000320ED
:102930008DF8020001208DF803006846FFF736FE8F
:102940000121024800F007F87FBD000000040040AC
:10295000CA430282704721B1028842F0010202801C
:1029600004E002884FF6FE731A400280704730B5CB
:102970000246002000230024158A05EA01039589F8
:1029800005EA010413B10CB1012000E0002030BDC4
:102990001AB183890B43838102E083898B4383814E
:1029A00070470000002202881D4B98420ED01D4B3C
:1029B00098420BD0B0F1804F08D01B4B984205D005
:1029C0001A4B984202D01A4B984204D14FF68F739B
:1029D0001A404B881A43174B984207D0164B98421F
:1029E00004D04FF6FF431A40CB881A4302808B88ED
:1029F00083850B8803850A4B98420BD0094B98427C
:102A000008D00E4B984205D00D4B984202D00D4B8A
:102A1000984201D10B7A038601238382704700001C
:102A2000002C014000340140000400400008004038
:102A3000000C004000100040001400400040014025
:102A4000004401400048014010B540F225510248C1
:102A500000F031F810BD00000038014008B540F228
:102A60002551074800F027F840B1054800F0DEF88E
:102A7000C0B200900121684600F08CFA08BD000049
:102A80000044004021B1828942F40052828104E076
:102A900082894DF6FF731A408281704702460020FA
:102AA000B1F5007F00D100BF13880B400BB10120AE
:102AB00000E00020704770B5024600240023002586
:102AC000002040F66A16B14200D100BFC1F34215A2
:102AD00001F01F03012606FA03F3012D02D19689A6
:102AE000334006E0022D02D1168A334001E0968A77
:102AF00033400C12012606FA04F41688344013B150
:102B00000CB1012000E0002070BDF0B503460024A8
:102B100000260025002040F66A17B94200D100BF08
:102B20001846C1F3421401F01F06012707FA06F503
:102B3000012C01D10C3004E0022C01D1103000E056
:102B400014301AB107682F43076002E00768AF43EB
:102B50000760F0BD2DE9F04786B005460E4600241B
:102B6000A24600BFA1460027B08900B100BF2F4692
:102B70002C8A4CF6FF700440F08804432C82AC8908
:102B80004EF6F3100440B088318908437189084338
:102B90000443AC81AC8A4FF6FF400440B089044343
:102BA000AC8201A8FFF782FD1F48874202D1DDF801
:102BB00010A001E0DDF80CA0A88900F4004040B1AD
:102BC0000AEBCA0000EB0A1031684900B0FBF1F8CB
:102BD00007E00AEBCA0000EB0A1031688900B0FB7D
:102BE000F1F86420B8FBF0F004012009642101FB36
:102BF0001089A88900F4004040B1322000EBC900E0
:102C0000B0FBF1F000F00700044308E0322000EBD5
:102C100009106421B0FBF1F000F00F0004432C8197
:102C200006B0BDE8F0870000003801400146888802
:102C3000C0F308007047C1F30802828070470000AB
:102C400010B586B0044601210420FFF70FFD0121D5
:102C50004804FFF7FBFC0420ADF8140003208DF8B6
:102C6000160018208DF8170005A91C48FEF706FF6E
:102C70000820ADF8140004208DF8170005A91748A6
:102C8000FEF7FCFE26208DF8000003208DF80100E1
:102C90008DF8020001208DF803006846FFF786FCDE
:102CA00001940020ADF80800ADF80A00ADF80C0062
:102CB000ADF810000C20ADF80E0001A90848FFF790
:102CC00049FF012240F225510548FFF71EFF01216F
:102CD0000348FFF7D7FE06B010BD00000008014012
:102CE0000044004010B586B00446012144F20400BF
:102CF000FFF7BCFC4FF40070ADF8140003208DF812
:102D0000160018208DF8170005A91C48FEF7B6FE1E
:102D10004FF48060ADF8140004208DF8170005A969
:102D20001648FEF7ABFE25208DF8000003208DF835
:102D300001008DF8020001208DF803006846FFF7BE
:102D400035FC01940020ADF80800ADF80A00ADF89C
:102D50000C00ADF810000C20ADF80E0001A90848D9
:102D6000FFF7F8FE012240F225510548FFF7CDFE9E
:102D700001210348FFF786FE06B010BD00080140A0
:102D80000038014000BFFEE7490050EAC12018BFEB
:102D900004204A0D18BF40F0010040F2FF72B2EB70
:102DA000515F08BF40F00200012808BF05207047AE
:102DB00030380A2801D2012070470020704700BF38
:102DC0007047000008B5FFF731F8012852D15C4880
:102DD000007800284ED15B480078012815D15A4A66
:102DE000D1895A4AD08900F0B7F81420564A584B76
:102DF00000901B7832F81310544A554B1B7832F868
:102E0000130014231F22FFF7A7F851480078012868
:102E10000DDB4F4A1278521E4B4B33F812104C4ABE
:102E20001278521E494B33F8120000F095F8142026
:102E3000454A474B00901B7832F81310434A444BE5
:102E40001B7832F8130014231F22FFF785F840483F
:102E50000078404908703E480078401C3C490870A2
:102E600008460078082869DB0020087001203549F1
:102E7000087063E0FFF708F8012802D130490870B4
:102E80005CE0FEF7E9FF012858D10020FFF744F885
:102E90004FF47840FFF73AFA2E48007807280AD115
:102EA0001420294A0090D189284AD08914231F224E
:102EB000FFF752F83FE026480078E0B9224A244B59
:102EC0001B7832F81310214A214B1B7832F813007B
:102ED00000F042F814201C4A1D4B00901B7832F879
:102EE00013101A4A1A4B1B7832F8130014231F22AE
:102EF000FFF732F81FE0164A1278521E124B33F8D1
:102F00001210134A1278521E104B33F8120000F0C0
:102F100023F814200E4A00901278521E0A4B33F800
:102F200012100B4A1278521E084B33F81200142369
:102F30001F22FFF711F800200149087008BD0000AA
:102F40002B0000202A00002020500008105000080C
:102F5000280000202900002038B504460D46142022
:102F600003460022294600902046FEF7F5FF38BDB3
:102F700070B504460D46E1B20548FFF75CFE00BFA0
:102F800080210348FFF78AFD0028F9D0204670BD54
:102F90000038014070B504460D46002624B90AA049
:102FA000FDF746F9701E70BD2A4621460E4800F016
:102FB00030FA0646AE4205D00CA0FDF739F94FF0C5
:102FC000FF30F0E73046EEE74552523A2067697A23
:102FD0005075744461746120627566206973206560
:102FE0006D707479200A0000240100204552523A85
:102FF000204661696C656420746F20726257726943
:103000007465200A0000000002480068401C014965
:10301000086070472400002010B52C200949086082
:103020000948C860084600F0E9F918B907A0FDF79B
:10303000FFF802E00AA0FDF7FBF8F4210D48FDF7C8
:103040008EFA10BD24010020340100207262437208
:10305000656174652053756363657373200A0000AE
:103060007262437265617465204661696C64200A0E
:1030700000000000300000204FF4A060FFF7CEFAFF
:10308000FEF78EFF00F058F8FEF716FFFFF732FA52
:10309000FEF7EEFB4FF4E130FFF724FEFEF7A8FE4B
:1030A000FEF788FC4FF41650FFF7CAFDFEF7CAFD85
:1030B00010A0FDF7BDF81BE0FEF7D4FC0220FEF7E0
:1030C000B5FC1449087004210320FEF7B8FC12492E
:1030D000088006210520FEF7B2FC1049088008464A
:1030E00003880D4802880B4801780DA0FDF7A0F871
:1030F000E2E700002D2D2D2D2D2D2D2D494F542D86
:103100004C4544202D2D2D2D2D2D2D2D2D2D0D0AF1
:10311000000000001400002016000020180000200D
:10312000506F696E74733D25640D0A583D25640D1A
:103130000A593D25640D0A0008B54FF47840FFF7A1
:10314000E5F81420044A00901188044A10881423DA
:103150001F22FEF701FF08BD205000081050000894
:1031600010B572480078082826D2DFE800F004265F
:103170004059758FA9C36E48007870B90020FEF7DA
:10318000CBFE6CA34FF6FF720A215020FFF74CF9DB
:1031900001206B49087066490870FEF775FE01282A
:1031A00002D1002062490870FFF7CCF9FEF754FE07
:1031B000012801D1FFF7E6F9B6E05D48007870B963
:1031C0000020FEF7A9FE5FA34FF4FC62002150200F
:1031D000FFF72AF901205A49087055490870FEF78F
:1031E00053FE012802D10020514908709CE050484C
:1031F000007868B90020FEF78FFE55A31F2200213A
:103200005020FFF711F901204D4908704849087016
:10321000FEF73AFE012802D100204549087083E0FC
:103220004348007870B90020FEF776FE4BA34FF6B6
:10323000E07200215020FFF7F7F8012040490870A4
:103240003B490870FEF720FE012802D100203849D2
:103250000870FEF785FA67E03548007870B90020FD
:10326000FEF75AFE40A340F2FF7200214C20FFF708
:10327000DBF80120324908702D490870FEF704FE82
:10328000012802D100202A4908704DE02848007822
:1032900070B90020FEF740FE36A34FF61F02002152
:1032A0004C20FFF7C1F8012025490870204908701B
:1032B000FEF7EAFD012802D100201D49087033E025
:1032C0001B48007870B90020FEF726FE2CA347F6B5
:1032D000FF7200214C20FFF7A7F801201849087061
:1032E00013490870FEF7D0FD012802D100201049D3
:1032F000087019E00E48007870B90020FEF70CFE47
:1033000022A34BF6404200214C20FFF78DF801200C
:103310000B49087006490870FEF7B6FD012802D176
:1033200000200349087000BF00BF10BD2900002025
:103330002C0000204C4544204D6F64756C650000E6
:103340002B000020493243204D6F64756C650000EE
:10335000535049204D6F64756C6500004144432013
:103360004D6F64756C650000464C5348204D6F648A
:10337000756C650054454D50204D6F64756C65004B
:1033800055415254204D6F64756C6500494E46524C
:10339000204D6F64756C650000B5024612B94FF0A0
:1033A000FF3000BD50689168884201D10020F8E7E5
:1033B00050689168884203D290685168401AF0E7DB
:1033C000104600F014F851689368C91A401AE8E7EB
:1033D00030B5044614B94FF0FF3030BD204600F040
:1033E00006F805462046FFF7D7FF281AF5E70146FD
:1033F00011B94FF0FF3070470868FCE7014611B97A
:103400004FF0FF307047C8684860C8688860002087
:10341000F8E72DE9F04104460F461546002604B1B1
:103420001FB94FF0FF30BDE8F0812046FFF7D0FF15
:10343000A84202D86FF00100F5E76068A1688842F1
:103440002AD82046FFF7D3FFA168E268891A461AF6
:10345000B54213D8A0682A463946FDF709F8A06896
:103460002844A0602046FFF7C2FFE1680844A16835
:10347000884201D1E068A0602846D4E7A0683246BF
:103480003946FCF7F5FFE068A060AA1BB919204691
:10349000FFF7BFFF3044C6E7A0682A463946FCF76D
:1034A000E7FFA0682844A0602846BCE710B50029C3
:1034B0000AD00878002807D005487844FDF760FC5A
:1034C000002801D0002010BD0248784410BD000043
:1034D0003E1C0000361C000021F00042A2F16052A8
:1034E000B2F5801F01F0004328BFD2F17F6C0BD9E9
:1034F0005FEA001C43EAC20242EB507018BF7047FB
:1035000028BF20F001007047B2F5801FBCBF1846ED
:1035100070474FEA410C1CF5001F02D2084600F02C
:1035200090B970B500F0B4F800000089FFF7F6BF5D
:103530004FF00040A0F5800070470000DFF848C160
:1035400070B51CEA111E1EBF1CEA13159EEA0C0F73
:1035500095EA0C0F00F06F8081EA030423EA4C1314
:103560004EEAD47E21EA4C1141F4801143F48013D9
:10357000AE44A1FB024CA0FB0365AEF17F7E361981
:1035800055EB0C05A1FB034C4CF10003A0FB021C06
:1035900016EB0C06654153F10003094218BF46F0D3
:1035A000010613F4007F0BD14FEA03314FEA0530D7
:1035B000340341EA155140EA16506FF003020AE065
:1035C0004FEAC3214FEAC520F40241EA555140EACF
:1035D00056506FF0020202EB2E4201EB025585EAD3
:1035E000CE710AD05FEA440C18BF24F0004450F1B9
:1035F000000041F1000120EAD47040F2FE7C6245F7
:1036000000D270BDA84214BF4FF080444FF0404438
:10361000002E08BF0024BEF1806FA8BFA1F1C041F9
:10362000BDE8704080F282804FF0000001F1C0419F
:1036300001F0004170479EEA0C0F0CEA131518BF09
:1036400095EA0C0F06D04FF0000081EA030E0EF051
:10365000004170BD00F01CF88900013E00F007B881
:1036600000F009B84FEA430C5FEA5C5C08D081EADD
:10367000030100F05BB84FEA410C5FEA5C5CF6D1F5
:103680004FF00000014970470000FF070000F87F7D
:103690000EF1020E2EF0030E5EF8046B364205D4D6
:1036A000012A43EB030515F5001F12D8012841EB51
:1036B000010C1CF5001F0CD80ED14FEAD17C15F57A
:1036C000001F0CEB4C0C0CF1020C08BF4CEBD37C34
:1036D00004E04FF0080C01E04FEAD37C0CEB4C0502
:1036E00026FA05F606F00706B6F1040C06D20EEB34
:1036F000860CBDE870404CF0010C6047DFE80CF030
:10370000090B02024FF000414FF00000A1F500212B
:1037100070BD19461046012851EB010418BFD4F5BD
:10372000001484BF002001F0004170BD0808A0F51E
:1037300000114FEA3101704743004FEAD30C4FEAC2
:103740003C0C43401FBF40070CF1605113F0FE4F8B
:1037500070471CF0006F03D100200CF0004170474F
:103760000CF0004343EA507010B540EACC0000F082
:1037700022F800BF000000924FEA0001FFF7D6BF19
:103780004FF000414FF00000A1F50021704700000C
:10379000B0FA80F310FA03F2C3F19D030AD0D90501
:1037A00001EB1220530638BF704700F1010008BF3B
:1037B00020F0010070470EF1020E2EF0030E5EF8AD
:1037C000044B244204D44FEA4102B2F17F4F11D896
:1037D0004FEA4003B3F17F4F0CD80ED14FEAD07CB3
:1037E000B2F17F4F0CEB4C0C0CF1020C08BF4CEB10
:1037F000D17C04E04FF0080C01E04FEAD17C0CEBE7
:103800004C0324FA03F404F00704B4F1040C06D2C8
:103810000EEB840CBDE810404CF0010C6047DFE873
:103820000CF0070802024FF00040A0F5800010BD28
:103830000846420018BFD2F1807288BF00F00040F5
:1038400010BDFF2141EAD050C0057047FCF7DDBF35
:103850000000000000000000000000000000000068
:103860003F40000000000000000030004000300039
:103870004000000009000BC03D000BC03D000900E6
:1038800018C024407FE0224031800000180024C08E
:103890001B000D803240018003801C4027401C80AB
:1038A0000740004010006000000000000000000021
:1038B0000000000000001F80204040200000402049
:1038C00020401F8000000000090006001F80060045
:1038D00009000000040004003F8004000400000010
:1038E0000010006000000000000000000400040060
:1038F000040004000400000000000040000000007C
:1039000000000000002001C0060038004000000058
:103910001F802040204020401F80000000001040F9
:103920003FC000400000000018C021402240244059
:103930001840000010802040244024401B800000DC
:1039400002000D0011003FC0014000003C802440F7
:1039500024402440238000001F8024402440344021
:10396000038000003000200027C038002000000045
:103970001B802440244024401B8000001C0022C0E7
:10398000224022401F80000000000000084000008C
:1039900000000000000000000460000000000000C3
:1039A000000004000A0011002080404009000900C6
:1039B00009000900090000000000404020801100BB
:1039C0000A00040018002000234024001800000012
:1039D0001F802040274029401F400000004007C0B2
:1039E00039000F0001C0004020403FC02440244067
:1039F0001B8000001F8020402040204030800000BD
:103A000020403FC0204020401F80000020403FC099
:103A100024402E4030C0000020403FC024402E00F3
:103A2000300000000F001080204022403380020050
:103A300020403FC0040004003FC020402040204000
:103A40003FC02040204000000060202020203FC0D8
:103A50002000200020403FC024400B0030C0204008
:103A600020403FC020400040004000C03FC03C001C
:103A700003C03C003FC0000020403FC00C4023007A
:103A80003FC020001F802040204020401F800000B9
:103A900020403FC024402400180000001F80214027
:103AA000214020E01FA0000020403FC0244026000D
:103AB00019C0004018C0244024402240318000003A
:103AC000300020403FC020403000000020003F80F8
:103AD000004000403F80200020003E0001C0070061
:103AE00038002000380007C03C0007C03800000044
:103AF000204039C0060039C0204000002000384076
:103B000007C0384020000000304021C02640384027
:103B100020C00000000000007FE0402040200000A6
:103B2000000070000C0003800040000000004020F6
:103B300040207FE000000000000020004000200046
:103B40000000000000100010001000100010001015
:103B500000000000400000000000000000000280A3
:103B60000540054003C0004020003FC00440044021
:103B70000380000000000380044004400640000071
:103B800000000380044024403FC000400000038048
:103B90000540054003400000000004401FC02440D1
:103BA00024402000000002E005500550065004208B
:103BB00020403FC00440040003C000400000044017
:103BC00027C000400000000000100010041027E093
:103BD0000000000020403FC00140070004C0044036
:103BE000204020403FC000400040000007C00400CB
:103BF00007C0040003C00000044007C004400400E4
:103C000003C0004000000380044004400380000023
:103C1000041007F0045004400380000000000380FB
:103C20000440045007F00010044007C002400400A4
:103C300004000000000006400540054004C00000EC
:103C4000000004001F8004400040000004000780C2
:103C50000040044007C000400400070004C0018089
:103C600006000400060001C0070001C006000000B5
:103C7000044006C0010006C0044000000410071004
:103C800004E00180060004000000044005C0064076
:103C9000044000000000000004007BE04020000021
:103CA000000000000000FFF00000000000004020C5
:103CB0007BE0040000000000400080004000200085
:103CC0002000400000000000000000000000000094
:103CD000000000000000000000001FCC000C0000ED
:103CE0000000000000000800300060000800300004
:103CF00060000000022003FC1E20022003FC1E20A6
:103D00000220000000000E1811043FFF10840C7800
:103D1000000000000F0010840F3800C007781884DE
:103D20000078000000780F8410C411240E9800E47D
:103D30000084000808006800700000000000000017
:103D40000000000000000000000007E01818200438
:103D500040020000000040022004181807E00000A4
:103D6000000000000240024001800FF0018002408C
:103D7000024000000080008000800FF8008000807A
:103D8000008000000001000D000E00000000000097
:103D900000000000000000800080008000800080A3
:103DA000008000800000000C000C000000000000FB
:103DB00000000000000000060018006001800600FE
:103DC00018002000000007F008081004100408087C
:103DD00007F000000000080408041FFC00040004B1
:103DE0000000000000000E0C101410241044118478
:103DF0000E0C000000000C181004110411041288AD
:103E00000C700000000000E00320042408241FFCC4
:103E10000024000000001F98108411041104108871
:103E200010700000000007F00888110411041888C1
:103E30000070000000001C00100010FC13001C00AB
:103E40001000000000000E3811441084108411444A
:103E50000E38000000000700088C10441044088849
:103E600007F00000000000000000030C030C00003D
:103E7000000000000000000000010106000000003A
:103E8000000000000000008001400220041008082B
:103E90001004000002200220022002200220022042
:103EA0000220000000001004080804100220014055
:103EB0000080000000000E001200100C106C10803A
:103EC0000F00000003E00C1813E4142417C40828A2
:103ED00007D000000004003C03C41C40074000E47D
:103EE000001C000410041FFC1104110411040E88AE
:103EF0000070000003E00C181004100410041008F7
:103F00001C10000010041FFC10041004100408080A
:103F100007F0000010041FFC1104110417C4100462
:103F20000818000010041FFC1104110017C0100035
:103F30000800000003E00C181004100410441C7862
:103F40000040000010041FFC1084008000801084DA
:103F50001FFC10040000100410041FFC10041004C7
:103F60000000000000030001100110011FFE1000FE
:103F70001000000010041FFC110403801464181CBE
:103F80001004000010041FFC1004000400040004CE
:103F9000000C000010041FFC1F0000FC1F001FFC91
:103FA0001004000010041FFC0C04030000E01018B3
:103FB0001FFC100007F00808100410041004080883
:103FC00007F0000010041FFC108410801080108087
:103FD0000F00000007F0081810241024101C080A15
:103FE00007F2000010041FFC1104110011C0113071
:103FF0000E0C000400000E1C1104108410841044E8
:104000001C3800001800100010041FFC10041000E1
:104010001800000010001FF8100400040004100431
:104020001FF8100010001E0011E0001C007013802B
:104030001C0010001FC0103C00E01F0000E0103CFE
:104040001FC000001004180C163401C001C0163443
:10405000180C100410001C00130400FC13041C00B6
:10406000100000000804101C1064108413041C04C9
:10407000101800000000000000007FFE4002400217
:1040800040020000000030000C0003800060001CB3
:104090000003000000004002400240027FFE0000DA
:1040A0000000000000000000200040004000400030
:1040B00020000000000100010001000100010001DA
:1040C000000100010000400040002000000000004E
:1040D0000000000000000098012401440144014454
:1040E00000FC000410001FFC00880104010400888B
:1040F0000070000000000070008801040104010449
:10410000008800000000007000880104010411080C
:104110001FFC0004000000F8014401440144014474
:1041200000C800000000010401040FFC1104110488
:1041300011001800000000D601290129012901C938
:104140000106000010041FFC0084010001000104AE
:1041500000FC000400000104190419FC0004000420
:10416000000000000000000300010101190119FE18
:104170000000000010041FFC0024004001B4010CEA
:10418000010400000000100410041FFC00040004DF
:1041900000000000010401FC0104010001FC010415
:1041A000010000FC010401FC008401000100010485
:1041B00000FC0004000000F80104010401040104F3
:1041C00000F80000010101FF0085010401040088DE
:1041D0000070000000000070008801040104010567
:1041E00001FF00010104010401FC0084010401003D
:1041F00001800000000000CC0124012401240124DE
:104200000198000000000100010007F8010401040A
:1042100000000000010001F800040004000401088F
:1042200001FC0004010001800170000C001001601D
:104230000180010001F0010C003001C00030010CD0
:1042400001F0010000000104018C00740170018C78
:1042500001040000010101810171000E00180160DC
:104260000180010000000184010C0134014401843B
:10427000010C0000000000000000000001003EFCF6
:10428000400240020000000000000000FFFF0000AC
:10429000000000000000400240023EFC010000005F
:1042A000000000000000600080008000400040002E
:1042B00020002000000000000000000000000000BE
:1042C00000000000000000000000000000000000EE
:1042D00000000000000000000000000000000000DE
:1042E000000000000000000F80380FFE380F8038FB
:1042F00000000000000000000000000000000000BE
:1043000000000100000600000C0000380000310031
:10431000000600000C000038000030000000000023
:104320000000000061800067F807F98000618000EC
:1043300061800061800061800067F807F98000619A
:104340008000000000000000000001C0E003E0F079
:104350000630080418081FFFFE040E080787F00344
:1043600081E000000000000001F000060C000404E1
:1043700008060C7001F9C0000E00003BE000EC18CC
:10438000070808040C180003E00000000001E0002A
:1043900007F003F818041C0804170807E1D003C04D
:1043A000E00023B0003C08002008000010000000DE
:1043B0000000000100003100003200001C0000007D
:1043C00000000000000000000000000000000000ED
:1043D00000000000000000000000000000000000DD
:1043E000000000007F0001FFC00780F00C001810E3
:1043F0000004200002000000000000200002100065
:10440000040C00180780F001FFC0007F00000000CE
:10441000000000000000000000000000000000009C
:104420004200006600006600003C0000180003FF28
:10443000C0001800003C000066000066000042005A
:10444000000000000800000800000800000800004C
:10445000080001FFC0000800000800000800000874
:1044600000000800000000000001000031000032E0
:1044700000001C0000000000000000000000000020
:10448000000000000000000000000000080000081C
:1044900000000800000800000800000800000800F4
:1044A00000080000080000080000000000000000F4
:1044B0000000000038000038000038000000000054
:1044C00000000000000000000000000000000000EC
:1044D00000000000000600001C00007000018000C9
:1044E0000E0000380000C0000700001C0000300073
:1044F00000000000000000007F8001FFE0038070EA
:104500000600180400080400080600180380700163
:10451000FFE0007F800000000000000000000100BC
:104520000801000801000803FFF807FFF800000871
:10453000000008000008000000000000000000016A
:10454000C03802C05804009804011804021804047A
:1045500018061C1803F81801E0F80000000000001D
:1045600000000001C0E003C0F004000804080804D3
:10457000080806180803F41801E7F00001E000003D
:1045800000000000000000000300000D000011000A
:1045900000610000810803010807FFF80FFFF80021
:1045A00001080001080000000000000000E007FC16
:1045B000D006080806100806100806100806183865
:1045C000060FF00607C00000000000000000000019
:1045D0003F8001FFE0038430020818041008041033
:1045E00008041008071810030FF00007C0000000AF
:1045F00000000000000003C00007000006000006E5
:1046000000F80607F806180006E00007000006009C
:104610000000000000000001E1E003F7F0063410A4
:10462000041808041808040C08040C0806161803DB
:10463000F3F001C1E000000000000000F80003FCFE
:1046400030030638040208040208040208040410B7
:104650000308F001FFC0007F000000000000000020
:104660000000000000000000000000007038007032
:10467000380070380000000000000000000000005A
:10468000000000000000000000000000000000002A
:10469000301A00301C000000000000000000000084
:1046A00000000000000000000000000800001400EE
:1046B0000022000041000080800100400200200430
:1046C0000010080008000000000000002100002188
:1046D0000000210000210000210000210000210035
:1046E0000021000021000021000000000000000067
:1046F00000000800080400100200200100400080B3
:1047000080004100002200001400000800000000AA
:1047100000000003C00004C00004000008003808C6
:104720000F380808380810000C300007E00003C0FC
:1047300000000000000000003F8000FFE0038070E8
:10474000020F1006708804C088048308047F880262
:10475000C09003012000FE40000008000018000186
:10476000F8003E0801C20007020007E20000FE0058
:10477000001FC80001F80000380000080400080706
:10478000FFF807FFF80408080408080408080408EC
:104790000806180803F41801E7F00001E000000023
:1047A000000000003F8001FFE00380700200180459
:1047B0000008040008040008040010060020078018
:1047C000C000000004000807FFF807FFF804000815
:1047D000040008040008040018020010038070019F
:1047E000FFE0007F8000000004000807FFF807FFDB
:1047F000F8040808040808040808040808043E0827
:10480000040008060018010060000000040008070A
:10481000FFF807FFF804080804080004080004086B
:1048200000043E00060000060000018000000000B9
:10483000000000003F8001FFE003807006001804C4
:1048400000080402080402080203F00783F00002D3
:104850000000020004000807FFF807FFF80408083A
:10486000000800000800000800000800040808070D
:10487000FFF807FFF8040008000000000000040033
:104880000804000804000807FFF807FFF804000800
:104890000400080400080000000000000000000000
:1048A00000060000070000010400010400010400EC
:1048B0000307FFFE07FFFC040000040000040000E3
:1048C00004000807FFF807FFF8040C0800180000B0
:1048D0003E0004C7800503C80600F8040038040041
:1048E0001800000804000807FFF807FFF804000894
:1048F0000000080000080000080000080000080090
:10490000001800006000000004000807FFF807809E
:104910000807FC00007FC00003F80007C000780013
:1049200007800807FFF807FFF804000804000807DD
:10493000FFF807000803C00000E000003800001E78
:10494000000007000001C00400F007FFF8040000A9
:10495000000000007F8001FFE00380700600180463
:10496000000804000806001803003001FFE0007F83
:104970008000000004000807FFF807FFF80404089F
:10498000040400040400040400040400060C0003F2
:10499000F80001F000000000000000007F8001FF2F
:1049A000E00380700600880400880400C806003C0C
:1049B00003003E01FFE6007F8400000004000807BA
:1049C000FFF807FFF8040808040800040C00040FAF
:1049D00000040BC00610F003F03801E008000008E6
:1049E00000000001E0F803F030063010041808045D
:1049F0001808040C08040C080206180207F00781C6
:104A0000E000000001800006000004000004000037
:104A100004000807FFF807FFF8040008040000047A
:104A2000000006000001800004000007FFE007FF0F
:104A3000F00400180000080000080000080000084A
:104A400000000804001007FFE00400000400000656
:104A5000000007E00007FE00041FE00001F800006E
:104A6000380001E0043E0007C0000600000400001A
:104A700004000007E00007FFC0041FF80007C0079C
:104A8000F80007FF80043FF80007C004F8000700A3
:104A90000004000000000004000806001807C078A9
:104AA00005F1C8003E00001F800463E80780F80697
:104AB0000018040008000000040000060000078041
:104AC0000007E008047C08001FF80007F800180839
:104AD00004E00807000006000004000000000001D8
:104AE00000080600380400F80403E8040F08047CFA
:104AF0000805F00807C0080700180400600000005F
:104B00000000000000000000000000000000003F66
:104B1000FFFE2000022000022000022000022000F0
:104B20000200000000000000000008000007000074
:104B300000C0000038000006000001C00000300086
:104B4000000E000001000000000000000000200036
:104B5000022000022000022000022000023FFFFE8F
:104B60000000000000000000000000000000000045
:104B700000000000000800001000003000002000CD
:104B800000300000100000080000000000000000DD
:104B90000000010000010000010000010000010010
:104BA0000001000001000001000001000001000000
:104BB00001000001000000000000000000200000D3
:104BC00020000010000010000000000000000000A5
:104BD00000000000000000000000000000F00019CC
:104BE000F8001B18002208002608002408002410E2
:104BF000003FF8001FF80000080000180000000443
:104C0000000007FFF80FFFF0001818001008002040
:104C100008002008003018001FF0000FC00000003E
:104C20000000000007C0001FF0001830002008003E
:104C30002008002008003C08001C10000060000054
:104C4000000000000000000007C0001FF00038183E
:104C500000200800200800200804101007FFF80FAB
:104C6000FFF000001000000000000000000000073E
:104C7000C0001FF000123000221800220800220895
:104C8000003208001E10000E20000000000000008E
:104C9000200000200800200801FFF803FFF806208C
:104CA000080420080420080720000300000000007A
:104CB00000000000000E000E6E001FF30031B10076
:104CC00020B10020B1003191001F13002E1E0020E2
:104CD0000E00300000000004000807FFF80FFFF886
:104CE000001008002000002000002008003FF8000D
:104CF0001FF8000008000000000000000000002075
:104D000008002008002008063FF8063FF8000008C9
:104D10000000080000080000000000000000000083
:104D2000000000000300000300200100200100201B
:104D300003063FFE063FFC000000000000000000EC
:104D400000000004000807FFF80FFFF800018800CA
:104D50000300002FC00038F80020380020080000B1
:104D60000800000000000000000004000804000823
:104D700004000807FFF80FFFF80000080000080013
:104D80000008000000000000002008003FF8003F7D
:104D9000F8001008002000003FF8003FF80010085D
:104DA000002000003FF8003FF8000008000000006D
:104DB0002008003FF8003FF8001008001000002015
:104DC00000002008003FF8001FF800000800000065
:104DD0000000000007C0000FF0001830003008008D
:104DE0002008002008003008001830000FF00007ED
:104DF000C0000000000000002001003FFF003FFF56
:104E000000101100200900200800200800303800A0
:104E10001FF0000FC00000000000000007C0001FCE
:104E2000F0003818002008002008002009001011A8
:104E3000001FFF003FFF00000100000000200800ED
:104E40002008002008003FF8003FF8000808001084
:104E500008002008002000003000003000000000A2
:104E6000000000000000000C78001E18003308004D
:104E700023080021080021880021980030F0003824
:104E80006000000000000000200000200000200062
:104E900000FFF003FFF800200800200800200800B1
:104EA0000030000000000000000000002000003F73
:104EB000F0007FF800001800000800000800201033
:104EC000003FF8007FF0000010000000000000002C
:104ED0002000003000003C00003F800023F0000074
:104EE00078000070002380003C00003000002000AB
:104EF000002000003C00003FE00023F80000E0003C
:104F00002700003E00003FE00021F80001E0003EE5
:104F100000002000000000002008002008003838B1
:104F2000003E680027800003C8002CF800383800D5
:104F300020180020080000000000000020000030C1
:104F400003003C01003F830023EC0000700023803D
:104F5000003C0000200000200000000000000000D5
:104F600000000038080020380020F80023E8002F57
:104F700088003E080038080020180000700000007B
:104F80000000000000000000000000000000000021
:104F900008000014001FF7FC30000620000200008B
:104FA0000000000000000000000000000000000001
:104FB000000000000000FFFFFF00000000000000F4
:104FC00000000000000000000000000000002000C1
:104FD000023000061FF7FC0014000008000000006B
:104FE00000000000000000000000000000000018A9
:104FF00000006000004000004000002000001000A1
:10500000000800000400000400000C000010000074
:10501000140050008C00C800140050008C00C80020
:105020003700370037003700870087008700870088
:105030000400000800000000000000020001000061
:105040001000000002400000000000A0000000006E
:1050500005400000000000C8000000000C400000F7
:105060000000409C00000000194000000020BCBE71
:105070000000000034400000BFC91B8E0000000487
:10508000B5400000504BCFD06607E2CF01000000D2
:105090006C4100003E8251AADFEEA73401000000FF
:1050A000D9420000DCB5A0E23A301F97FFFFFFFFB6
:1050B000B4450000FD25A0C8E9A3C14FFFFFFFFFD5
:1050C000FF3F00000000008000000000FF3F0000E4
:1050D00000000080000000001451000800000020C3
:1050E000300000006C01000844510008300000202E
:1050F00090130000880100081C000000430000001D
:10510000F8FFFFFF0C0000000E0000000F00000081
:105110002E0000000000000001020304010203044D
:10512000060708090204060800000000000000004D
:10513000000000000000000000000000000000006F
:04514000000000006B
:0400000508000131BD
:00000001FF
